:1000000010C01FC01EC02BC01CC01BC01AC019C00E
:1000100018C017C016C015C014C013C012C011C03C
:1000200010C011241FBECFE5D2E0DEBFCDBF20E05F
:10003000A0E6B0E001C01D92A236B207E1F73AD0C7
:100040003CC0DECFB898C09AD39ADB9A08958BB79C
:1000500080628BBF80B5816080BD789408951F92C7
:100060000F920FB60F9211248F939F938FE097E218
:100070000197F1F700C00000B09911C080916000B5
:1000800090916100892B79F49BB388E089278BBB21
:1000900081E090E0909361008093600004C0109232
:1000A0006100109260009F918F910F900FBE0F9092
:0E00B0001F901895C7DFCBDFFFCFF894FFCF6E
:00000001FF
