:1000000010C01FC01EC01DC01CC01BC01AC019C01C
:1000100018C017C016C015C014C02EC012C011C021
:1000200010C011241FBECFE5D2E0DEBFCDBF20E05F
:10003000A0E6B0E001C01D92A536B207E1F72ED0D0
:1000400030C0DECFD198D59A8FB583628FBD8EB583
:1000500088608EBD78948EB581608EBD089587B11D
:100060008F7387B9389A86B18E6E86B9789483B1CA
:10007000887F83B9369A08951F920F920FB60F9218
:1000800011248F939F9384B195B199BD88BD9F91A1
:100090008F910F900FBE0F901F901895D3DFDFDF69
:0600A000FFCFF894FFCF32
:00000001FF
