:1000000010C02AC029C028C027C026C025C024C0CF
:1000100074C022C021C059C01FC043C01DC01CC035
:100020001BC011241FBECFE5D2E0DEBFCDBF10E064
:10003000A0E6B0E0E2EAF2E002C005900D92A63739
:10004000B107D9F720E0A6E7B0E001C01D92A238C1
:10005000B207E1F766D023C1D3CF369A0895D1987D
:1000600087B18F7387B9389A86B18E6E86B91C9A1C
:10007000099AF3CFBA9A8AB3806C8ABB80B7836A35
:1000800080BF89B7816089BF8FB589688FBD609A4D
:10009000E6DF789483B7816083BF8EB581608EBDC3
:1000A00008951F920F920FB60F9211248F939F9372
:1000B00085B190E090938100809380009F918F9113
:1000C0000F900FBE0F901F9018951F920F920FB6B2
:1000D0000F9211248F939F9380917C0090917D00CB
:1000E00086BF80917A0090917B008CBF9F918F9109
:1000F0000F900FBE0F901F9018951F920F920FB682
:100100000F9211248F939F938091780090917900A2
:100110009BBD8ABD9F918F910F900FBE0F901F9036
:100120001895A8DF809176009091770066E070E0E6
:10013000A5D08C599F4FFC018081918180917600E0
:100140009091770066E070E099D08C599F4FFC0148
:1001500082819381809176009091770066E070E0D3
:100160008DD08C599F4FFC01848195818FE19EE455
:100170000197F1F700C000002091800030918100CC
:100180002F31310590F4809160009091610090933F
:100190007D0080937C008B59910990937B00809324
:1001A0007A001092790010927800C9014F97C79792
:1001B000E8F4E0916000F0916100C90163E070E053
:1001C0005DD0AF01481B590B50937D0040937C00DC
:1001D00080917C0090917D00E81BF90BF0937B00EF
:1001E000E0937A001092790010927800C901865548
:1001F000910985359105E8F4E0916000F091610086
:10020000C90163E070E03AD0AF01481B590B50932D
:100210007B0040937A0080917A0090917B00E81BEC
:10022000F90BF0937900E093780010927D00109222
:100230007C00C9018B5A91098535910508F096CF4C
:10024000E0916000F0916100C90163E070E016D0B8
:100250009F01281B390B30937900209378008091FF
:10026000780090917900E81BF90BF0937D00E09302
:100270007C0010927B0010927A0078CF00245527E2
:1002800004C0080E591F880F991F009729F0769512
:100290006795B8F37105B9F7802D952F0895F894F7
:0202A000FFCF8E
:1002A200FF000300FF00000000000000FF0000004C
:0602B20000000000FF0047
:00000001FF
