:1000000010C02AC029C083C227C026C025C024C072
:100010006AC222C021C04FC21FC01EC01DC01CC06A
:100020001BC011241FBECFE5D2E0DEBFCDBF10E064
:10003000A0E6B0E0E4ECF6E002C005900D92AC3F23
:10004000B107D9F721E0ACEFB0E001C01D92AE31AD
:10005000B207E1F7B8D234C3D3CF80911A0190919F
:100060001B01069738F180911A0190911B0186358A
:10007000910500F5209160003091610080911A0196
:1000800090911B0163E070E00AD3281B390B309379
:1000900011012093100180916000909161002091E6
:1000A000100130911101821B930B90930F018093EB
:1000B0000E0174C080911A0190911B018635910543
:1000C00068F180911A0190911B018B3A910530F5EE
:1000D000209160003091610080911A0190911B0184
:1000E00021503F4F63E070E0DAD2281B390B309388
:1000F0000F0120930E01809160009091610020918A
:100100000E0130910F01821B930B90930D01809390
:100110000C011092110110921001089580911A01A2
:1001200090911B018B3A910568F180911A01909191
:100130001B018B3F910530F52091600030916100EB
:1001400080911A0190911B012E503E4F63E070E0A8
:10015000A6D2281B390B30930D0120930C018091FE
:1001600060009091610020910C0130910D01821B83
:10017000930B909311018093100110920F01109234
:100180000E0108958091600090916100909311019B
:100190008093100110920F0110920E0110920D0128
:1001A00010920C01089580911C0190911D014F97B0
:1001B00018F48EE190E034C080911C0190911D01F3
:1001C0004F9750F080911C0190911D01863591054B
:1001D00018F48CE390E024C080911C0190911D01E3
:1001E0008635910550F080911C0190911D018B3A4C
:1001F000910518F48AE590E013C080911C0190915C
:100200001D018B3A910550F080911C0190911D01C8
:10021000813F910518F486E990E002C08AEF90E0F2
:1002200090930B0180930A0108958AEF90E09093D8
:1002300011018093100110920F0110920E01109283
:100240000D0110920C0110920B0110920A010895F9
:1002500087EE93E00197F1F700C000008091040160
:100260009091050166E070E01AD28A599F4FDC0137
:10027000ED91FC91F0931501E0931401809104013C
:100280009091050166E070E00AD28A599F4FDC0127
:1002900012962D913C9113973093170120931601DC
:1002A000809104019091050166E070E0F8D18A59CF
:1002B0009F4FDC0114968D919C911597909313019B
:1002C0008093120140911001509111014E175F0768
:1002D00050F440911001509111014F5F5F4F5093C6
:1002E0001101409310014091100150911101E41748
:1002F000F50750F4409110015091110141505109FE
:10030000509311014093100140910E0150910F0143
:100310004217530750F440910E0150910F014F5F67
:100320005F4F50930F0140930E0140910E01509189
:100330000F012417350750F440910E0150910F0121
:100340004150510950930F0140930E0140910C010F
:1003500050910D014817590750F440910C015091EC
:100360000D014F5F5F4F50930D0140930C01409181
:100370000C0150910D018417950750F440910C0128
:1003800050910D014150510950930D0140930C01C2
:100390004091100150911101E417F50709F54091C2
:1003A0000E0150910F0124173507D1F420910C0153
:1003B00030910D018217930799F480910401909177
:1003C0000501019690930501809304018091040139
:1003D00090910501499720F01092050110920401B7
:1003E00008959C016817790724F49B0181E090E04F
:1003F00002C080E090E04217530714F482E090E0DE
:1004000008959C018617970724F49B0181E090E0F2
:1004100002C080E090E02417350714F482E090E0F9
:1004200008953DD1089587B1807C816087B9369A5F
:10043000349BFECF349A85B190E0089587B1807CDB
:10044000826087B9369A349BFECF349A85B190E0AA
:10045000089585B7886285BF0895B89888B383608A
:1004600088BB8BB780628BBF80B5836080BD0895E9
:1004700087B18F7387B9399A86B1836886B91C9A18
:100480000895BA9A8AB3806E8ABBD19880B7836A7E
:1004900080BF89B7816089BF8FB5896A8FBD609A37
:1004A000DCDFE6DFD6DF789483B7816083BF8EB56B
:1004B00081608EBD08951F920F920FB60F92112486
:1004C0008F939F93809110019091110186BF80912D
:1004D0000E0190910F018CBF9F918F910F900FBED5
:1004E0000F901F9018951F920F920FB60F92112424
:1004F0008F939F9380910C0190910D019BBD8ABDBC
:100500009F918F910F900FBE0F901F9018951F9283
:100510000F920FB60F9211242F933F938F939F93B7
:10052000B1991FC08091020190910301892BC9F4F8
:100530001092FD001092FC00209100013091010109
:1005400081E090E0232B11F080E090E09093010196
:100550008093000181E090E0909303018093020179
:1005600004C01092030110920201B0991FC0809143
:10057000FE009091FF00892BC9F4109201011092A6
:1005800000012091FC003091FD0081E090E0232BE0
:1005900011F080E090E09093FD008093FC0081E0FA
:1005A00090E09093FF008093FE0004C01092FF0043
:1005B0001092FE009F918F913F912F910F900FBE4F
:1005C0000F901F9018955DDF39DFEC012CDF9093C1
:1005D0001B0180931A0185E88A95F1F700002EDF50
:1005E00090931D0180931C0120911C0130911D01ED
:1005F000CE01019628173907F9F420911C0130919A
:100600001D01029728173907B9F420911C01309178
:100610001D0103962817390779F420911C013091A8
:100620001D0104972817390739F480911C01909116
:100630001D018C179D0719F0D9BDC8BD06C080915A
:100640001C0190911D0199BD88BD80910001909180
:100650000101019719F4D598E8DDF7CFD59AFDDCB3
:100660008091FC009091FD000197B1F4D598109213
:1006700011011092100110920F0110920E011092B0
:100680000D0110920C018091FC009091FD00892BCE
:1006900009F49ACFDDDDF7CFD59ADFDC95CF0024C2
:1006A000552704C0080E591F880F991F009729F07D
:1006B00076956795B8F37105B9F7802D952F089554
:0406C000F894FFCFDC
:1006C400FA0003000100FF0000000000E8000C0035
:1006D4007A00FD000D00FF00A7000000E800720092
:1006E4000000FF0032000C00E8000D002400FF00B1
:1006F40000005300E80000009F00FF000C00CF0042
:10070400E8000C00CF00E8000D00FF00D800000056
:10071400E80081000000FF0046000E00E8000C0025
:100724006400FF000D00A400E8000000FF00FB00CF
:100734000000E800CE000C00FF00CA000D00E80035
:100744009E000000FF0093000000E8006B000C0016
:0C075400FF0052000D00E8002200010030
:00000001FF
