:1000000010C02AC029C008C227C026C025C024C0ED
:10001000EFC122C021C0D4C11FC0BEC11DC01CC0C1
:100020001BC011241FBECFE5D2E0DEBFCDBF10E064
:10003000A0E6B0E0EEEBF5E002C005900D92A43F23
:10004000B107D9F721E0A4EFB0E001C01D92AE30B6
:10005000B207E1F770D2B1C2D3CF8FEC97E001972E
:10006000F1F700C0000020910601309107012F3107
:10007000310590F4809160009091610090930301AC
:10008000809302018B5991099093010180930001A3
:100090001092FF001092FE00C9014F97C797E8F435
:1000A000E0916000F0916100C90163E070E074D2FA
:1000B000AF01481B590B50930301409302018091FB
:1000C000020190910301E81BF90BF0930101E09309
:1000D00000011092FF001092FE00C901865591099F
:1000E00085359105E8F4E0916000F0916100C90167
:1000F00063E070E051D2AF01481B590B50930101EE
:10010000409300018091000190910101E81BF90BDF
:10011000F093FF00E093FE001092030110920201A1
:10012000C9018B5A910986349105D0F4E0916000A1
:10013000F0916100C90163E070E02ED29F01281B9D
:10014000390B3093FF002093FE008091FE009091C8
:10015000FF00E81BF90BF0930301E09302010FC0CD
:100160002A3F310580F0809160009091610090936A
:100170000301809302011092FF001092FE00109282
:1001800001011092000108958FEF90E09093030118
:100190008093020110920101109200011092FF0061
:1001A0001092FE0008958FEC97E00197F1F700C0E0
:1001B00000008091FC009091FD0066E070E0ECD1C1
:1001C0008C599F4FFC012081318130930B0120938A
:1001D0000A018091FC009091FD0066E070E0DCD1A6
:1001E0008C599F4FFC018281938190930D018093E4
:1001F0000C018091FC009091FD0066E070E0CCD194
:100200008C599F4FFC0184819581909309018093C3
:10021000080180910201909103018217930748F42D
:1002200080910201909103010196909303018093C4
:10023000020180910201909103012817390748F4C7
:1002400080910201909103010197909303018093A3
:100250000201809100019091010140910C015091A7
:100260000D018417950748F48091000190910101D8
:10027000019690930101809300018091000190917B
:1002800001014817590748F480910001909101013C
:10029000019790930101809300016091FE0070919D
:1002A000FF0080910801909109016817790750F4C7
:1002B0006091FE007091FF006F5F7F4F7093FF00B1
:1002C0006093FE006091FE007091FF008617970713
:1002D00050F46091FE007091FF00615071097093BD
:1002E000FF006093FE0060910201709103016217AC
:1002F000730709F52091000130910101241735079A
:10030000D1F42091FE003091FF002817390799F4AD
:100310008091FC009091FD0001969093FD008093E8
:10032000FC008091FC009091FD00499720F0109214
:10033000FD001092FC000895B89888B3836088BBD4
:100340008BB780628BBF80B5836080BD0895369A7D
:100350000895D19887B18F7387B9389A86B18E6E18
:1003600086B91C9A099AF3CFBA9A8AB3806C8ABB71
:1003700080B7836A80BF89B7816089BF8FB589687C
:100380008FBD609AE6DFD8DF789483B7816083BF42
:100390008EB581608EBD08951F920F920FB60F9299
:1003A00011248F939F9385B190E0909307018093E0
:1003B00006019F918F910F900FBE0F901F9018957F
:1003C0001F920F920FB60F9211248F939F938091DB
:1003D00002019091030186BF80910001909101017B
:1003E0008CBF9F918F910F900FBE0F901F9018950B
:1003F0001F920F920FB60F9211248F939F938091AB
:10040000FE009091FF009BBD8ABD9F918F910F9040
:100410000FBE0F901F9018951F920F920FB60F925C
:1004200011242F933F938F939F938FE097E201972F
:10043000F1F700C00000B1991FC08091F6009091C3
:10044000F700892BC9F41092F9001092F80081E0AE
:1004500090E02091F4003091F500232B11F080E022
:1004600090E09093F5008093F40081E090E0909309
:10047000F7008093F60004C01092F7001092F60087
:10048000B0991FC08091FA009091FB00892BC9F4AC
:100490001092F5001092F40081E090E02091F800B5
:1004A0003091F900232B11F080E090E09093F90057
:1004B0008093F80081E090E09093FB008093FA0035
:1004C00004C01092FB001092FA00B19927C0B099B5
:1004D00025C08091F6009091F700892BF9F4809166
:1004E000FA009091FB00892BC9F41092F50010924C
:1004F000F40081E090E02091F8003091F900232B86
:1005000011F080E090E09093F9008093F80081E092
:1005100090E09093FB008093FA0004C01092FB00DF
:100520001092FA009F918F913F912F910F900FBEE3
:100530000F901F90189518DF8091F4009091F500AE
:10054000019741F08091F8009091F9000197B1F482
:100550001BDE14C0109203011092020110920101DF
:10056000109200011092FF001092FE008091F400A2
:100570009091F500892B31F316DEF8CF8091F400CD
:100580009091F5000197C1F28091F8009091F900E7
:10059000019791F262DDD0CF0024552704C0080EE8
:1005A000591F880F991F009729F076956795B8F322
:0E05B0007105B9F7802D952F0895F894FFCFAF
:1005BE00FF000300FF0000000000E8000C007A00BE
:1005CE00FD000D00FF00A7000000E8007200000013
:1005DE00FF0032000C00E8000D002400FF000000B8
:1005EE005300E80000009F00FF000C00CF00E80061
:1005FE000C00CF00E8000D00FF00D8000000E8005E
:10060E0081000000FF0046000E00E8000C006400B0
:10061E00FF000D00A400E8000000FF00FB0000003A
:10062E00E800CE000C00FF00CA000D00E8009E009E
:10063E000000FF0093000000E8006B000C00FF00BC
:04064E0052000D0049
:00000001FF
