:1000000010C02AC029C006C227C026C025C024C0EF
:10001000EDC122C021C0D2C11FC0BCC11DC01CC0C7
:100020001BC011241FBECFE5D2E0DEBFCDBF10E064
:10003000A0E6B0E0EAEBF5E002C005900D92A6372D
:10004000B107D9F720E0A6E7B0E001C01D92A039C2
:10005000B207E1F76ED2AFC2D3CF8FEC97E0019732
:10006000F1F700C0000020918800309189002F3105
:10007000310590F48091600090916100909385002B
:10008000809384008B599109909383008093820020
:100090001092810010928000C9014F97C797E8F431
:1000A000E0916000F0916100C90163E070E072D2FC
:1000B000AF01481B590B50938500409384008091F9
:1000C000840090918500E81BF90BF0938300E09386
:1000D00082001092810010928000C901865591091A
:1000E00085359105E8F4E0916000F0916100C90167
:1000F00063E070E04FD2AF01481B590B509383006F
:10010000409382008091820090918300E81BF90B5C
:10011000F0938100E093800010928500109284009B
:10012000C9018B5A910986349105D0F4E0916000A1
:10013000F0916100C90163E070E02CD29F01281B9F
:10014000390B309381002093800080918000909142
:100150008100E81BF90BF0938500E09384000FC049
:100160002A3F310580F0809160009091610090936A
:10017000850080938400109281001092800010927C
:1001800083001092820008958FEF90E09093850095
:10019000809384001092830010928200109281005C
:1001A0001092800008958AE18A95F1F700C080914D
:1001B0007E0090917F0066E070E0ECD18C599F4FFB
:1001C000FC012081318130938D0020938C0080913F
:1001D0007E0090917F0066E070E0DCD18C599F4FEB
:1001E000FC018281938190938F0080938E00809197
:1001F0007E0090917F0066E070E0CCD18C599F4FDB
:10020000FC018481958190938B0080938A0080917A
:100210008400909185008217930748F480918400B0
:100220009091850001969093850080938400809141
:100230008400909185002817390748F48091840044
:100240009091850001979093850080938400809120
:1002500082009091830040918E0050918F0084170E
:10026000950748F4809182009091830001969093C5
:1002700083008093820080918200909183004817D0
:10028000590748F4809182009091830001979093E0
:100290008300809382006091800070918100809142
:1002A0008A0090918B006817790750F46091800064
:1002B000709181006F5F7F4F709381006093800029
:1002C00060918000709181008617970750F46091CB
:1002D000800070918100615071097093810060937A
:1002E000800060918400709185006217730709F5A2
:1002F000209182003091830024173507D1F420919A
:100300008000309181002817390799F480917E0090
:1003100090917F00019690937F0080937E00809162
:100320007E0090917F00049720F010927F00109241
:100330007E000895B89888B3836088BB8BB78062CD
:100340008BBF80B5836080BD0895369A0895D1989B
:1003500087B18F7387B9389A86B18E6E86B91C9A29
:10036000099AF3CFBA9A8AB3806C8ABB80B7836A42
:1003700080BF89B7816089BF8FB589688FBD609A5A
:10038000E6DFD8DF789483B7816083BF8EB5816064
:100390008EBD08951F920F920FB60F9211248F9366
:1003A0009F9385B190E090938900809388009F91FE
:1003B0008F910F900FBE0F901F9018951F920F9264
:1003C0000FB60F9211248F939F9380918400909188
:1003D000850086BF80918200909183008CBF9F91A1
:1003E0008F910F900FBE0F901F9018951F920F9234
:1003F0000FB60F9211248F939F938091800090915C
:1004000081009BBD8ABD9F918F910F900FBE0F9071
:100410001F9018951F920F920FB60F9211242F93D1
:100420003F938F939F938FE097E20197F1F700C07E
:100430000000B1991FC08091780090917900892BBC
:10044000C9F410927B0010927A0081E090E0209134
:10045000760030917700232B11F080E090E09093AC
:1004600077008093760081E090E09093790080930C
:10047000780004C01092790010927800B0991FC0E3
:1004800080917C0090917D00892BC9F410927700B7
:100490001092760081E090E020917A0030917B000C
:1004A000232B11F080E090E090937B0080937A0002
:1004B00081E090E090937D0080937C0004C01092D6
:1004C0007D0010927C00B19927C0B09925C0809121
:1004D000780090917900892BF9F480917C009091BB
:1004E0007D00892BC9F410927B0010927A0081E084
:1004F00090E02091760030917700232B11F080E07E
:1005000090E0909377008093760081E090E0909364
:1005100079008093780004C01092790010927800DE
:100520009F918F913F912F910F900FBE0F901F9031
:10053000189518DF8091760090917700019741F02F
:1005400080917A0090917B000197B1F41DDE14C078
:100550001092850010928400109283001092820005
:100560001092810010928000809176009091770027
:10057000892B31F318DEF8CF8091760090917700C7
:100580000197C1F280917A0090917B00019791F2DE
:1005900064DDD0CF0024552704C0080E591F880FF2
:1005A000991F009729F076956795B8F37105B9F70B
:0A05B000802D952F0895F894FFCFD9
:1005BA00FF000300FA00000000000000FA0000003B
:0605CA0000000000FA0031
:00000001FF
