:1000000010C02AC029C08DC227C026C025C024C068
:1000100074C222C021C059C21FC01EC01DC01CC056
:100020001BC011241FBECFE5D2E0DEBFCDBF10E064
:10003000A0E6B0E0EAE3F6E002C005900D92A63F2C
:10004000B107D9F721E0A6EFB0E001C01D92AA31B7
:10005000B207E1F799D2EFC2D3CF80911601909108
:1000600017014F9778F48091600090916100909310
:100070000B0180930A0180916000909161008B597F
:10008000910928C080911601909117014F9758F15E
:1000900080911601909117018635910520F52091E8
:1000A000600030916100809116019091170163E02A
:1000B00070E0B0D2281B390B30930B0120930A015A
:1000C000809160009091610020910A0130910B01B4
:1000D000821B930B909309018093080110920701F2
:1000E00010920601089580911601909117018635AE
:1000F000910558F180911601909117018B3A910565
:1001000020F520916000309161008091160190915E
:10011000170163E070E07ED2281B390B3093090190
:100120002093080180916000909161002091080166
:1001300030910901821B930B909307018093060174
:1001400010920B0110920A0108958091160190916E
:1001500017018B3A910538F18091160190911701A2
:10016000813F910500F52091600030916100809100
:1001700016019091170163E070E04CD2281B390BF7
:1001800030930701209306018091600090916100F7
:100190002091060130910701821B930B90930B0174
:1001A00080930A010CC0809160009091610090934F
:1001B0000B0180930A011092070110920601109220
:1001C0000901109208010895809118019091190178
:1001D0004F9718F48EE190E034C08091180190910F
:1001E00019014F9750F080911801909119018635AF
:1001F000910518F48CE390E024C08091180190914F
:1002000019018635910550F08091180190911901DE
:100210008B3A910518F48AE590E013C0809118019B
:10022000909119018B3A910550F0809118019091AD
:100230001901813F910518F486E990E002C08AEF28
:1002400090E0909305018093040108958FEF90E072
:1002500090930B0180930A011092090110920801FA
:1002600010920701109206011092050110920401EC
:1002700008958DE08A95F1F700008091FE0090913D
:10028000FF0066E070E0C6D18A599F4FFC012081D3
:10029000318130931101209310018091FE009091E3
:1002A000FF0066E070E0B6D18A599F4FFC01828161
:1002B000938190931301809312018091FE0090919D
:1002C000FF0066E070E0A6D18A599F4FFC0184814F
:1002D000958190930F0180930E0180910A01909176
:1002E0000B018217930748F480910A0190910B014A
:1002F000019690930B0180930A0180910A019091DD
:100300000B012817390748F480910A0190910B01DD
:10031000019790930B0180930A01809108019091BD
:10032000090140911201509113018417950748F477
:1003300080910801909109010196909309018093A1
:10034000080180910801909109014817590748F464
:100350008091080190910901019790930901809380
:100360000801609106017091070180910E01909142
:100370000F016817790750F4609106017091070129
:100380006F5F7F4F709307016093060160910601D4
:10039000709107018617970750F4609106017091DC
:1003A0000701615071097093070160930601609124
:1003B0000A0170910B016217730709F5209108017A
:1003C0003091090124173507D1F4209106013091AD
:1003D00007012817390799F48091FE009091FF00DA
:1003E00001969093FF008093FE008091FE00909113
:1003F000FF00499720F01092FF001092FE00089530
:100400009C016817790724F49B0181E090E002C009
:1004100080E090E04217530714F482E090E00895E2
:100420009C018617970724F49B0181E090E002C0AD
:1004300080E090E02417350714F482E090E00895FE
:10044000E9D0089587B1807C816087B9369A349B62
:10045000FECF349A85B190E0089587B1807C8260A8
:1004600087B9369A349BFECF349A85B190E00895CF
:100470008BB780628BBF80B5836080BD089587B1E4
:100480008F7387B9399A86B1836886B91C9A0895A3
:10049000BA9A8AB3806E8ABBB89888B3836088BBE7
:1004A000D19880B7836A80BF89B7816089BF8FB5D3
:1004B000896A8FBD609ADCDFE2DF789483B7816060
:1004C00083BF8EB581608EBD08951F920F920FB6C7
:1004D0000F9211248F939F9380910A0190910B01A9
:1004E00086BF80910801909109018CBF9F918F91E7
:1004F0000F900FBE0F901F9018951F920F920FB67E
:100500000F9211248F939F93809106019091070180
:100510009BBD8ABD9F918F910F900FBE0F901F9032
:1005200018951F920F920FB60F9211242F933F939D
:100530008F939F93B1991BC08091F8009091F9001F
:10054000892BA9F42091F6003091F70081E090E02A
:10055000232B11F080E090E09093F7008093F60059
:1005600081E090E09093F9008093F80004C010922D
:10057000F9001092F8009F918F913F912F910F9069
:100580000FBE0F901F90189583DF67DFEC015ADFD5
:1005900090931701809316018FEC97E00197F1F784
:1005A00000C000005ADF9093190180931801209138
:1005B000180130911901CE01019628173907F9F475
:1005C0002091180130911901029728173907B9F4C1
:1005D000209118013091190103962817390779F4F1
:1005E000209118013091190104972817390739F41F
:1005F00080911801909119018C179D0719F0D9BDB0
:10060000C8BD06C0809118019091190199BD88BD9F
:1006100024DDBBCF0024552704C0080E591F880FC6
:10062000991F009729F076956795B8F37105B9F78A
:0A063000802D952F0895F894FFCF58
:10063A00FA0003000100FF0000000000E8000C00BF
:10064A007A00FD000D00FF00A7000000E80072001C
:10065A000000FF0032000C00E8000D002400FF003B
:10066A0000005300E80000009F00FF000C00CF00CC
:10067A00E8000C00CF00E8000D00FF00D8000000E1
:10068A00E80081000000FF0046000E00E8000C00B0
:10069A006400FF000D00A400E8000000FF00FB005A
:1006AA000000E800CE000C00FF00CA000D00E800C0
:1006BA009E000000FF0093000000E8006B000C00A1
:0606CA00FF0052000D00CC
:00000001FF
