:1000000010C02AC029C028C027C026C025C024C0CF
:1000100052C022C021C037C01FC01EC01DC01CC09E
:100020001BC011241FBECFE5D2E0DEBFCDBF10E064
:10003000A0E6B0E0E8E8F2E002C005900D92A23739
:10004000B107D9F720E0A2E7B0E001C01D92AC37BC
:10005000B207E1F744D016C1D3CFBA9A8AB3806C05
:100060008ABB80B7836A80BF89B7816089BF8FB53B
:1000700089688FBD609A789483B7816083BF8EB59D
:1000800081608EBD08951F920F920FB60F921124BA
:100090008F939F93809178009091790086BF809193
:1000A0007600909177008CBF9F918F910F900FBE3B
:1000B0000F901F9018951F920F920FB60F92112458
:1000C0008F939F9380917400909175009BBD8ABD22
:1000D0009F918F910F900FBE0F901F901895BDDFCD
:1000E0008FEC97E00197F1F700C00000809172005B
:1000F0009091730066E070E0B4D0805A9F4FDC01AD
:10010000ED91FC91809172009091730066E070E037
:10011000A8D0805A9F4FDC0112962D913C911397E5
:10012000809172009091730066E070E09AD0805ADE
:100130009F4FDC0114968D919C911597409178000A
:10014000509179004E175F0750F44091780050911C
:1001500079004F5F5F4F5093790040937800409152
:10016000780050917900E417F50750F44091780039
:100170005091790041505109509379004093780093
:1001800040917600509177004217530750F4409108
:100190007600509177004F5F5F4F50937700409308
:1001A000760040917600509177002417350750F47F
:1001B000409176005091770041505109509377005B
:1001C000409376004091740050917500481759078C
:1001D00050F440917400509175004F5F5F4F509301
:1001E000750040937400409174005091750084171D
:1001F000950750F440917400509175004150510999
:1002000050937500409374004091780050917900AC
:100210004E175F0709F064CF409176005091770048
:100220004217530709F05CCF20917400309175009C
:100230002817390709F054CF80917200909173000C
:100240000196909373008093720080917200909158
:100250007300049708F444CF109273001092720058
:100260003FCF0024552704C0080E591F880F991F3F
:10027000009729F076956795B8F37105B9F7802D49
:08028000952F0895F894FFCFBB
:10028800FA00000000000000FA0000000000000072
:02029800FA006A
:00000001FF
