:1000000010C02AC029C028C027C026C025C024C0CF
:1000100084C222C021C069C21FC01EC01DC01CC036
:100020001BC011241FBECFE5D2E0DEBFCDBF10E064
:10003000A0E6B0E0E6EEF5E002C005900D92A63F26
:10004000B107D9F721E0A6EFB0E001C01D92AA31B7
:10005000B207E1F77CD2C5C2D3CF42E04A95F1F7AF
:1000600000C080911601909117012091600030919D
:1000700061008F31910538F430930B0120930A0110
:100080002B59310916C0AC014F5151094733510565
:10009000C8F463E070E094D2A901481B590B509357
:1000A0000B0140930A0180910A0190910B01281BDA
:1000B000390B309309012093080110920701109227
:1000C00006010895AC014655510945355105C8F45E
:1000D00063E070E075D2A901481B590B50930901E8
:1000E000409308018091080190910901281B390B68
:1000F000309307012093060110920B0110920A0120
:100100000895AC014B5A510946345105A8F463E0F7
:1001100070E056D2A901481B590B50930701409338
:1001200006018091060190910701281B390B30933D
:100130000B0120930A0108C030930B0120930A01A0
:100140001092070110920601109209011092080105
:1001500008958FEF90E090930B0180930A01109225
:1001600009011092080110920701109206011092E5
:1001700005011092040108958DE08A95F1F70000C1
:100180008091FE009091FF0066E070E019D28A59DC
:100190009F4FFC0120813181309311012093100188
:1001A0008091FE009091FF0066E070E009D28A59CC
:1001B0009F4FFC01828193819093130180931201E0
:1001C0008091FE009091FF0066E070E0F9D18A59BD
:1001D0009F4FFC018481958190930F0180930E01C4
:1001E00080910A0190910B018217930748F4809146
:1001F0000A0190910B01019690930B0180930A01E3
:1002000080910A0190910B012817390748F48091D9
:100210000A0190910B01019790930B0180930A01C1
:1002200080910801909109014091120150911301B0
:100230008417950748F4809108019091090101966F
:100240009093090180930801809108019091090120
:100250004817590748F480910801909109010197C6
:100260009093090180930801609106017091070144
:1002700080910E0190910F016817790750F46091F9
:100280000601709107016F5F7F4F709307016093C4
:10029000060160910601709107018617970750F4D7
:1002A0006091060170910701615071097093070117
:1002B0006093060160910A0170910B016217730748
:1002C00009F5209108013091090124173507D1F46F
:1002D00020910601309107012817390799F4809180
:1002E000FE009091FF0001969093FF008093FE0026
:1002F0008091FE009091FF00499720F01092FF003E
:100300001092FE0008959C016817790724F49B0160
:1003100081E090E002C080E090E04217530714F4BF
:1003200082E090E008959C018617970724F49B01D2
:1003300081E090E002C080E090E02417350714F4DB
:1003400082E090E00895B19906C08091F800909104
:10035000F900892B49F0B09984C08091FC009091FC
:10036000FD00892B09F07DC08FE097E20197F1F73E
:1003700000C00000B1991FC08091F8009091F90071
:10038000892BC9F41092FB001092FA002091F6001C
:100390003091F70081E090E0232B11F080E090E0B5
:1003A0009093F7008093F60081E090E09093F9003D
:1003B0008093F80004C01092F9001092F800B099F0
:1003C0001FC08091FC009091FD00892BC9F4109210
:1003D000F7001092F6002091FA003091FB0081E0C6
:1003E00090E0232B11F080E090E09093FB0080934D
:1003F000FA0081E090E09093FD008093FC0004C03F
:100400001092FD001092FC00B19927C0B09925C050
:100410008091F8009091F900892BF9F48091FC000B
:100420009091FD00892BC9F41092FB001092FA0004
:100430002091F6003091F70081E090E0232B11F03D
:1004400080E090E09093F7008093F60081E090E0E8
:100450009093FD008093FC0008951092FD0010928F
:10046000FC000895ADD0089587B1807C816087B984
:10047000369A3699FECF85B190E0089587B1807C99
:10048000826087B9369A3699FECF85B190E008959B
:100490008BB780628BBF80B5836080BD089587B1C4
:1004A0008F7387B9389A86B1866886B91C9A099A7B
:1004B0000895BA9A8AB3806E8ABBB89888B383606D
:1004C00088BBD19880B7836A80BF89B7816089BFB4
:1004D0008FB5896A8FBD609AE2DF789483B78160B7
:1004E00083BF8EB581608EBD08951F920F920FB6A7
:1004F0000F9211248F939F9380910A0190910B0189
:1005000086BF80910801909109018CBF9F918F91C6
:100510000F900FBE0F901F9018951F920F920FB65D
:100520000F9211248F939F93809106019091070160
:100530009BBD8ABD809104019091050199BD88BD44
:100540009F918F910F900FBE0F901F901895B1DF64
:10055000FADE8ADF90931701809316018FDF909364
:100560001901809318018091F6009091F70001978E
:10057000A1F410920B0110920A011092090110923D
:10058000080110920701109206018091F6009091E7
:10059000F700892B19F0F0DDF8CF5FDD8091FA00CC
:1005A0009091FB00019711F4D4DD01C056DD8091DC
:1005B0001801909119019093050180930401C8CF0F
:1005C0000024552704C0080E591F880F991F009753
:1005D00029F076956795B8F37105B9F7802D952FB9
:0605E0000895F894FFCF1E
:1005E600FF0003000100FF0000000000E8000C000F
:1005F6007A00FD000D00FF00A7000000E800720071
:100606000000FF0032000C00E8000D002400FF008F
:1006160000005300E80000009F00FF000C00CF0020
:10062600E8000C00CF00E8000D00FF00D800000035
:10063600E80081000000FF0046000E00E8000C0004
:100646006400FF000D00A400E8000000FF00FB00AE
:100656000000E800CE000C00FF00CA000D00E80014
:100666009E000000FF0093000000E8006B000C00F5
:06067600FF0052000D0020
:00000001FF
