:1000000010C02AC029C028C027C026C025C024C0CF
:1000100084C022C021C072C01FC043C01DC01CC00C
:100020001BC011241FBECFE5D2E0DEBFCDBF10E064
:10003000A0E6B0E0E6E5F1E002C005900D92A6363C
:10004000B107D9F720E0A6E6B0E001C01D92A637BF
:10005000B207E1F776D07DC0D3CF369A0895D19814
:1000600087B18F7387B9389A86B18E6E86B91C9A1C
:10007000099AF3CFBA9A8AB380668ABB80B783683D
:1000800080BF89B7816089BF8FB5896A8FBD609A4B
:10009000E6DF789483B7816083BF8EB581608EBDC3
:1000A00008951F920F920FB60F9211242F933F9332
:1000B0008F939F93EF93FF938091640090916500DD
:1000C00025B1FC01EE0FFF1FE059FF4F30E03183F7
:1000D000208301968330910510F081E090E09093A9
:1000E000650080936400FF91EF919F918F913F9104
:1000F0002F910F900FBE0F901F9018951F920F9287
:100100000FB60F9211248F938091720086BF8F914A
:100110000F900FBE0F901F9018951F920F920FB661
:100120000F9211248F939F9380917400909175008A
:1001300099BD88BD9F918F910F900FBE0F901F901A
:10014000189598DF87B1807C90916400892B87B9DE
:06015000F9CFF894FFCF87
:06015600FF0003000100A0
:00000001FF
