:1000000010C02AC029C042C227C026C025C024C0B3
:1000100023C222C021C008C21FC0C0C11DC01CC055
:100020001BC011241FBECFE5D2E0DEBFCDBF10E064
:10003000A0E6B0E0E2E3F6E002C005900D92A83F32
:10004000B107D9F721E0A8EFB0E001C01D92A631B9
:10005000B207E1F7AAD2EBC2D3CF8FEC97E00197BA
:10006000F1F700C0000020911201309113012F31EF
:10007000310590F4809160009091610090930701A8
:10008000809306018B599109909305018093040197
:100090001092030110920201C9014F97C797E8F42B
:1000A000E0916000F0916100C90163E070E0AED2C0
:1000B000AF01481B590B50930701409306018091F3
:1000C000060190910701E81BF90BF0930501E093FD
:1000D00004011092030110920201C9018655910991
:1000E00085359105E8F4E0916000F0916100C90167
:1000F00063E070E08BD2AF01481B590B50930501B0
:10010000409304018091040190910501E81BF90BD3
:10011000F0930301E093020110920701109206018F
:10012000C9018B5A910986349105D0F4E0916000A1
:10013000F0916100C90163E070E068D29F01281B63
:10014000390B3093030120930201809102019091B9
:100150000301E81BF90BF0930701E09306010FC0C0
:100160002A3F310580F0809160009091610090936A
:100170000701809306011092030110920201109270
:100180000501109204010895109265001092640018
:100190008FEF90E090930701809306011092050184
:1001A00010920401109203011092020108958DE053
:1001B0008A95F1F70000809100019091010166E0BD
:1001C00070E024D288599F4FFC0120813181309307
:1001D0000D0120930C01809100019091010166E0D6
:1001E00070E014D288599F4FFC01828193819093D3
:1001F0000F0180930E01809100019091010166E052
:1002000070E004D288599F4FFC01848195819093BE
:100210000B0180930A0180910601909107018217DA
:10022000930748F4809106019091070101969093FD
:10023000070180930601809106019091070128171C
:10024000390748F480910601909107010197909336
:10025000070180930601809104019091050140916E
:100260000E0150910F018417950748F48091040105
:10027000909105010196909305018093040180916E
:100280000401909105014817590748F48091040131
:10029000909105010197909305018093040160916D
:1002A00002017091030180910A0190910B0168177E
:1002B000790750F460910201709103016F5F7F4FE5
:1002C0007093030160930201609102017091030138
:1002D0008617970750F460910201709103016150F5
:1002E000710970930301609302016091060170919E
:1002F00007016217730709F5209104013091050188
:1003000024173507D1F420910201309103012817F9
:10031000390799F480910001909101010196909321
:1003200001018093000180910001909101014997A2
:1003300020F010920101109200010895B89888B33E
:10034000836088BB8BB780628BBF80B5836080BDC4
:100350000895369A0895D19887B18F7387B9389ADE
:1003600086B18E6E86B91C9A099AF3CFBA9A8AB36F
:10037000806E8ABB80B7836A80BF89B7816089BF7E
:100380008FB5896A8FBD609AE6DFD8DF789483B72E
:10039000816083BF8EB581608EBD08951F920F92DC
:1003A0000FB60F9211242F938F939F93EF93FF9388
:1003B000E0916600F091670085B1EE0FFF1FE05FEE
:1003C000FE4F90E09183808380916600909167005A
:1003D00001969093670080936600809166009091EB
:1003E0006700039730F081E090E09093670080937E
:1003F000660027B18091660090916700922F907CF3
:10040000892B87B980911401909115019093650013
:1004100080936400FF91EF919F918F912F910F90A6
:100420000FBE0F901F9018951F920F920FB60F924C
:1004300011248F939F93809106019091070186BFAD
:1004400080910401909105018CBF9F918F910F9035
:100450000FBE0F901F9018951F920F920FB60F921C
:1004600011248F939F9380910201909103019BBD72
:100470008ABD809164009091650099BD88BD9F916F
:100480008F910F900FBE0F901F9018951F920F9293
:100490000FB60F9211242F933F938F939F938FEC5E
:1004A00097E00197F1F700C00000B1991FC080915B
:1004B000FA009091FB00892BC9F41092FD00109274
:1004C000FC0081E090E02091F8003091F900232BAE
:1004D00011F080E090E09093F9008093F80081E0C3
:1004E00090E09093FB008093FA0004C01092FB0010
:1004F0001092FA00B0991FC08091FE009091FF0009
:10050000892BC9F41092F9001092F80081E090E074
:100510002091FC003091FD00232B11F080E090E051
:100520009093FD008093FC0081E090E09093FF00A9
:100530008093FE0004C01092FF001092FE00B1995B
:1005400027C0B09925C08091FA009091FB00892BBB
:10055000F9F48091FE009091FF00892BC9F410926C
:10056000F9001092F80081E090E02091FC003091B9
:10057000FD00232B11F080E090E09093FD0080932C
:10058000FC0081E090E09093FF008093FE0004C0A7
:100590001092FF001092FE009F918F913F912F913A
:1005A0000F900FBE0F901F901895E0DE8091F8001D
:1005B0009091F900019741F08091FC009091FD002D
:1005C0000197B1F4E1DD14C0109207011092060109
:1005D0001092050110920401109203011092020181
:1005E0008091F8009091F900892B31F3E0DDF8CF8C
:1005F0008091F8009091F9000197C1F28091FC0080
:100600009091FD00019791F228DDD0CF002455276D
:1006100004C0080E591F880F991F009729F076957E
:100620006795B8F37105B9F7802D952F0895F89463
:02063000FFCFFA
:10063200FF00030096000100FF0000000000E80038
:100642000C007A00FD000D00FF00A7000000E8008A
:1006520072000000FF0032000C00E8000D002400D0
:10066200FF0000005300E80000009F00FF000C00A4
:10067200CF00E8000C00CF00E8000D00FF00D8001A
:100682000000E80081000000FF0046000E00E800C4
:100692000C006400FF000D00A400E8000000FF0051
:1006A200FB000000E800CE000C00FF00CA000D00B5
:1006B200E8009E000000FF0093000000E8006B00CD
:0806C2000C00FF0052000D00C6
:00000001FF
