:1000000010C02AC029C028C027C026C025C024C0CF
:1000100074C022C021C059C01FC043C01DC01CC035
:100020001BC011241FBECFE5D2E0DEBFCDBF10E064
:10003000A0E6B0E0EAECF2E002C005900D92A43731
:10004000B107D9F720E0A4E7B0E001C01D92A038C5
:10005000B207E1F766D037C1D3CF369A0895D19869
:1000600087B18F7387B9389A86B18E6E86B91C9A1C
:10007000099AF3CFBA9A8AB3806C8ABB80B7836A35
:1000800080BF89B7816089BF8FB589688FBD609A4D
:10009000E6DF789483B7816083BF8EB581608EBDC3
:1000A00008951F920F920FB60F9211248F939F9372
:1000B00085B190E090937F0080937E009F918F9117
:1000C0000F900FBE0F901F9018951F920F920FB6B2
:1000D0000F9211248F939F9380917A0090917B00CF
:1000E00086BF80917800909179008CBF9F918F910D
:1000F0000F900FBE0F901F9018951F920F920FB682
:100100000F9211248F939F938091760090917700A6
:100110009BBD8ABD9F918F910F900FBE0F901F9036
:100120001895A8DF809174009091750066E070E0EA
:10013000B9D08E599F4FFC018081918180917400CC
:100140009091750066E070E0ADD08E599F4FFC0134
:1001500082819381809174009091750066E070E0D7
:10016000A1D08E599F4FFC0184819581EFEFF0E083
:10017000AFEFB0E08FEC97E00197F1F700C000001F
:1001800020917E0030917F002530310560F0109283
:100190007B0010927A0010927700109276001092F5
:1001A000790010927800C9010797869760F4B093A0
:1001B0007B00A0937A001092770010927600109244
:1001C000790010927800C9018F978697D0F4C90101
:1001D00063E070E067D0AF01481B590B50937B0080
:1001E00040937A0080917A0090917B00AF01481B88
:1001F000590B509379004093780010927700109239
:100200007600C9018655910984359105D0F4109284
:100210007B0010927A00C90163E070E043D0AF0127
:10022000481B590B509379004093780080917800D7
:1002300090917900AF01481B590B50937700409380
:100240007600C9018B5A910984359105D0F48091CB
:10025000760090917700AF01481B590B50937B00BB
:1002600040937A001092790010927800C90163E0FF
:1002700070E018D0AF01481B590B509377004093A2
:1002800076002A3F310508F475CFB0937B00A09328
:100290007A001092770010927600109279001092F6
:1002A000780068CF0024552704C0080E591F880F16
:1002B000991F009729F076956795B8F37105B9F7FE
:0A02C000802D952F0895F894FFCFCC
:1002CA000300FF00000000000000FF000000000023
:0402DA000000FF0021
:00000001FF
