:1000000010C02AC029C03AC027C026C025C024C0BD
:1000100023C022C021C020C01FC01EC01DC01CC0E4
:100020001BC011241FBECFE5D2E0DEBFCDBF10E064
:10003000A0E6B0E0EEEEF1E002C005900D92A2362F
:10004000B107D9F720E0A2E6B0E001C01D92AA36C0
:10005000B207E1F7A2D0C9C0D3CFB89888B3836004
:1000600088BB8AB38D608ABBDB9808958BB78062AA
:100070008BBF80B5836080BD789408951F920F92E6
:100080000FB60F9211242F933F938F939F938FE07E
:1000900097E20197F1F700C00000B1991FC080916D
:1000A000640090916500892BC9F41092670010924A
:1000B000660081E090E02091620030916300232B84
:1000C00011F080E090E0909363008093620081E003
:1000D00090E0909365008093640004C010926500E6
:1000E00010926400B0991FC08091680090916900DF
:1000F000892BC9F4109263001092620081E090E0B5
:100100002091660030916700232B11F080E090E091
:10011000909367008093660081E090E0909369007F
:100120008093680004C01092690010926800B19931
:1001300027C0B09925C08091640090916500892BFB
:10014000F9F48091680090916900892BC9F41092AC
:1001500067001092660081E090E02091620030918B
:100160006300232B11F080E090E090936300809374
:10017000620081E090E0909365008093640004C089
:1001800010926500109264009F918F913F912F9182
:100190000F900FBE0F901F9018955FDF67DF82E012
:1001A0008A95F1F700C080916200909163000197F9
:1001B00011F4DA9A01C0DA98809166009091670094
:1001C000019711F4DB9A01C0DB9880916200909155
:1001D0006300019741F0809166009091670001975C
:0E01E00011F0D89ADCCFD898DACFF894FFCF80
:0201EE0001000E
:00000001FF
