:1000000010C01FC01EC02FC01CC01BC01AC019C00A
:1000100018C017C016C015C014C013C012C011C03C
:1000200010C011241FBECFE5D2E0DEBFCDBF20E05F
:10003000A0E6B0E001C01D92A836B207E1F7A2D059
:10004000BAC0DECFB89888B3836088BB8AB38C60AF
:100050008ABBDB9808958BB780628BBF80B58360C5
:1000600080BD789408951F920F920FB60F921124BD
:100070002F933F938F939F938FE097E20197F1F730
:1000800000C00000B1991FC0809162009091630090
:10009000892BC9F4109265001092640081E090E011
:1000A0002091600030916100232B11F080E090E0FE
:1000B000909361008093600081E090E090936300F2
:1000C0008093620004C01092630010926200B099A5
:1000D0001FC08091660090916700892BC9F410922F
:1000E00061001092600081E090E020916400309106
:1000F0006500232B11F080E090E0909365008093E1
:10010000640081E090E0909367008093660004C0F3
:100110001092670010926600B19927C0B09925C06F
:100120008091620090916300892BF9F480916600C0
:1001300090916700892BC9F41092650010926400B9
:1001400081E090E02091600030916100232B11F05C
:1001500080E090E0909361008093600081E090E007
:10016000909363008093620004C010926300109229
:1001700062009F918F913F912F910F900FBE0F9032
:100180001F9018955FDF67DF82E08A95F1F700C066
:100190008091600090916100019711F4DA9A01C09A
:1001A000DA988091640090916500019711F4DB9AD0
:0A01B000EBCFDB98E9CFF894FFCF06
:00000001FF
