:1000000010C02AC029C028C027C026C025C024C0CF
:1000100074C022C021C059C01FC043C01DC01CC035
:100020001BC011241FBECFE5D2E0DEBFCDBF10E064
:10003000A0E6B0E0ECEFF2E002C005900D92A4372C
:10004000B107D9F720E0A4E7B0E001C01D92A038C5
:10005000B207E1F766D050C1D3CF369A0895D19850
:1000600087B18F7387B9389A86B18E6886B91C9A22
:10007000099AF3CFBA9A8AB3806C8ABB80B7836A35
:1000800080BF89B7816089BF8FB589688FBD609A4D
:10009000E6DF789483B7816083BF8EB581608EBDC3
:1000A00008951F920F920FB60F9211248F939F9372
:1000B00085B190E090937F0080937E009F918F9117
:1000C0000F900FBE0F901F9018951F920F920FB6B2
:1000D0000F9211248F939F9380917A0090917B00CF
:1000E00086BF80917800909179008CBF9F918F910D
:1000F0000F900FBE0F901F9018951F920F920FB682
:100100000F9211248F939F938091760090917700A6
:100110009BBD8ABD9F918F910F900FBE0F901F9036
:100120001895A8DF8FEC97E00197F1F700C0000069
:10013000809174009091750066E070E0CCD08E598B
:100140009F4FDC01ED91FC918091740090917500BE
:1001500066E070E0C0D08E599F4FDC0112962D9161
:100160003C911397809174009091750066E070E067
:10017000B2D08E599F4FDC0114968D919C911597AA
:1001800040917A0050917B004E175F0770F46091A8
:100190007A0070917B004091600050916100460FA1
:1001A000571F50937B0040937A0040917A00509102
:1001B0007B00E417F50770F440917A0050917B00C2
:1001C0006091600070916100461B570B50937B005B
:1001D00040937A004091780050917900421753077C
:1001E00070F46091780070917900409160005091B6
:1001F0006100460F571F509379004093780040915B
:100200007800509179002417350770F440917800F8
:10021000509179006091600070916100461B570B0E
:100220005093790040937800409176005091770088
:100230004817590770F460917600709177004091EB
:10024000600050916100460F571F50937700409314
:10025000760040917600509177008417950770F4EE
:10026000409176005091770060916000709161003C
:10027000461B570B509377004093760040917A00CD
:1002800050917B004E175F0709F04CCF40917800EA
:10029000509179004217530709F044CF209176001E
:1002A000309177002817390709F03CCF809174000E
:1002B00090917500019690937500809374008091E1
:1002C000740090917500049708F42CCF109275007B
:1002D0001092740027CF0024552704C0080E591F20
:1002E000880F991F009729F076956795B8F37105E7
:0C02F000B9F7802D952F0895F894FFCFEA
:1002FC000300FF00000000000000FF0000000000F1
:04030C000000FF00EE
:00000001FF
