:100000000EC01DC035C01BC01AC019C018C017C013
:1000100016C015C014C013C012C011C010C01124E6
:100020001FBECFE5D2E0DEBFCDBF20E0A0E6B0E04E
:1000300001C01D92A436B207E1F753D065C0E0CFEE
:10004000BA9887B18F7387B9399A86B1836886B9B0
:100050001D9A0895B998C19A8BB780628BBFA99AEF
:100060007894089587B3896187BBC098C398F2CF0D
:100070001F920F920FB60F9211242F933F938F93DD
:100080009F938FE097E20197F1F700C00000B199CC
:100090001BC08091620090916300892BA9F420918C
:1000A00060003091610081E090E0232B11F080E04E
:1000B00090E0909361008093600081E090E09093E5
:1000C00063008093620004C010926300109262008B
:1000D0009F918F913F912F910F900FBE0F901F9086
:1000E0001895C0DF8FE19EE40197F1F700C0000092
:1000F0008091600090916100892B19F0C49AC0989A
:0C010000F7CFC09AC498EECFF894FFCF60
:00000001FF
